{
  "contractName": "Distributor",
  "abi": [
    {
      "inputs": [
        {
          "internalType": "address",
          "name": "_batchId",
          "type": "address"
        },
        {
          "internalType": "address",
          "name": "_sender",
          "type": "address"
        },
        {
          "internalType": "address",
          "name": "_shipper",
          "type": "address"
        },
        {
          "internalType": "address",
          "name": "_retailer",
          "type": "address"
        }
      ],
      "payable": false,
      "stateMutability": "nonpayable",
      "type": "constructor"
    },
    {
      "constant": true,
      "inputs": [],
      "name": "getBatchIdStatus",
      "outputs": [
        {
          "internalType": "uint256",
          "name": "",
          "type": "uint256"
        }
      ],
      "payable": false,
      "stateMutability": "view",
      "type": "function"
    },
    {
      "constant": false,
      "inputs": [
        {
          "internalType": "address",
          "name": "_batchId",
          "type": "address"
        },
        {
          "internalType": "address",
          "name": "_shipper",
          "type": "address"
        }
      ],
      "name": "pickPackageForRetailer",
      "outputs": [],
      "payable": false,
      "stateMutability": "nonpayable",
      "type": "function"
    },
    {
      "constant": false,
      "inputs": [
        {
          "internalType": "address",
          "name": "_batchId",
          "type": "address"
        },
        {
          "internalType": "address",
          "name": "_receiver",
          "type": "address"
        }
      ],
      "name": "receivePackageRetailer",
      "outputs": [],
      "payable": false,
      "stateMutability": "nonpayable",
      "type": "function"
    }
  ],
  "bytecode": "0x608060405234801561001057600080fd5b506040516106fe3803806106fe8339818101604052608081101561003357600080fd5b8101908080519060200190929190805190602001909291908051906020019092919080519060200190929190505050826000806101000a81548173ffffffffffffffffffffffffffffffffffffffff021916908373ffffffffffffffffffffffffffffffffffffffff16021790555083600160006101000a81548173ffffffffffffffffffffffffffffffffffffffff021916908373ffffffffffffffffffffffffffffffffffffffff16021790555082600260006101000a81548173ffffffffffffffffffffffffffffffffffffffff021916908373ffffffffffffffffffffffffffffffffffffffff16021790555081600360006101000a81548173ffffffffffffffffffffffffffffffffffffffff021916908373ffffffffffffffffffffffffffffffffffffffff16021790555080600460006101000a81548173ffffffffffffffffffffffffffffffffffffffff021916908373ffffffffffffffffffffffffffffffffffffffff16021790555050505050610545806101b96000396000f3fe608060405234801561001057600080fd5b50600436106100415760003560e01c8063190d65de14610046578063b4779a3c146100aa578063e2785eee1461010e575b600080fd5b6100a86004803603604081101561005c57600080fd5b81019080803573ffffffffffffffffffffffffffffffffffffffff169060200190929190803573ffffffffffffffffffffffffffffffffffffffff16906020019092919050505061012c565b005b61010c600480360360408110156100c057600080fd5b81019080803573ffffffffffffffffffffffffffffffffffffffff169060200190929190803573ffffffffffffffffffffffffffffffffffffffff169060200190929190505050610313565b005b6101166104a4565b6040518082815260200191505060405180910390f35b600360009054906101000a900473ffffffffffffffffffffffffffffffffffffffff1673ffffffffffffffffffffffffffffffffffffffff168173ffffffffffffffffffffffffffffffffffffffff16146101d2576040517f08c379a00000000000000000000000000000000000000000000000000000000081526004018080602001828103825260278152602001806104ea6027913960400191505060405180910390fd5b600160028111156101df57fe5b600460146101000a81548160ff021916908360028111156101fc57fe5b02179055508173ffffffffffffffffffffffffffffffffffffffff1663e979c9d4600460009054906101000a900473ffffffffffffffffffffffffffffffffffffffff166000809054906101000a900473ffffffffffffffffffffffffffffffffffffffff166040518363ffffffff1660e01b8152600401808373ffffffffffffffffffffffffffffffffffffffff1673ffffffffffffffffffffffffffffffffffffffff1681526020018273ffffffffffffffffffffffffffffffffffffffff1673ffffffffffffffffffffffffffffffffffffffff16815260200192505050600060405180830381600087803b1580156102f757600080fd5b505af115801561030b573d6000803e3d6000fd5b505050505050565b8073ffffffffffffffffffffffffffffffffffffffff16600460009054906101000a900473ffffffffffffffffffffffffffffffffffffffff1673ffffffffffffffffffffffffffffffffffffffff16146103b9576040517f08c379a00000000000000000000000000000000000000000000000000000000081526004018080602001828103825260238152602001806104c76023913960400191505060405180910390fd5b6002808111156103c557fe5b600460146101000a81548160ff021916908360028111156103e257fe5b02179055508173ffffffffffffffffffffffffffffffffffffffff1663f64cd21e600460009054906101000a900473ffffffffffffffffffffffffffffffffffffffff166040518263ffffffff1660e01b8152600401808273ffffffffffffffffffffffffffffffffffffffff1673ffffffffffffffffffffffffffffffffffffffff168152602001915050600060405180830381600087803b15801561048857600080fd5b505af115801561049c573d6000803e3d6000fd5b505050505050565b6000600460149054906101000a900460ff1660028111156104c157fe5b90509056fe4f6e6c7920726563656976657220697320616c6c6f77656420746f20726563656976654f6e6c79205368697070657220697320616c6c6f77656420746f2070696368207061636b616765a265627a7a72315820e11b0edde591407bfb0c69302e1ad70b99360a04af9713f1458aa1ea39f70fbc64736f6c63430005100032",
  "source": "pragma solidity >=0.5.0 <0.8.6;\r\n\r\nimport \"./Medicine.sol\";\r\n\r\ncontract Distributor{\r\n    address owner;\r\n    enum packageStatus{atCreator,picked,delivered}\r\n\r\n    address batchId;\r\n    address sender;\r\n    address shipper;\r\n    address retailer;\r\n    packageStatus status;\r\n\r\n    constructor(\r\n        address _batchId,\r\n        address _sender,\r\n        address _shipper,\r\n        address _retailer\r\n    ) public {\r\n        owner=_sender;\r\n        batchId=_batchId;\r\n        sender=_sender;\r\n        shipper=_shipper;\r\n        retailer=_retailer;\r\n    }\r\n\r\n    function getBatchIdStatus() public view returns(uint){\r\n        return uint(status);\r\n    }\r\n\r\n    function pickPackageForRetailer(address _batchId,address _shipper) public {\r\n        require(_shipper==shipper,\"Only Shipper is allowed to pich package\");\r\n        status=packageStatus(1);\r\n        Medicine(_batchId).receivePackageDistributor(retailer, owner);\r\n    }\r\n\r\n    function receivePackageRetailer(address _batchId,address _receiver) public {\r\n        require(retailer==_receiver,\"Only receiver is allowed to receive\");\r\n        status=packageStatus(2);\r\n        Medicine(_batchId).receivePackageRetailer(retailer);\r\n    }\r\n\r\n\r\n    \r\n\r\n\r\n\r\n}",
  "sourcePath": "C:\\Users\\Asus\\Desktop\\blockchain-projects\\med-chain\\src\\contracts\\Distributor.sol",
  "compiler": {
    "name": "solc",
    "version": "0.5.16+commit.9c3226ce.Emscripten.clang"
  },
  "schemaVersion": "3.2.3",
  "updatedAt": "2021-06-22T12:28:15.310Z",
  "devdoc": {
    "methods": {}
  },
  "userdoc": {
    "methods": {}
  }
}