{
  "contractName": "MedCycle",
  "abi": [
    {
      "inputs": [
        {
          "internalType": "address",
          "name": "_admin",
          "type": "address"
        }
      ],
      "payable": false,
      "stateMutability": "nonpayable",
      "type": "constructor"
    },
    {
      "anonymous": false,
      "inputs": [
        {
          "indexed": true,
          "internalType": "address",
          "name": "BatchId",
          "type": "address"
        },
        {
          "indexed": true,
          "internalType": "address",
          "name": "Manufacturer",
          "type": "address"
        },
        {
          "indexed": false,
          "internalType": "address",
          "name": "shipper",
          "type": "address"
        },
        {
          "indexed": true,
          "internalType": "address",
          "name": "Receiver",
          "type": "address"
        }
      ],
      "name": "MedicineNewBatch",
      "type": "event"
    },
    {
      "anonymous": false,
      "inputs": [
        {
          "indexed": false,
          "internalType": "address",
          "name": "BatchID",
          "type": "address"
        },
        {
          "indexed": true,
          "internalType": "address",
          "name": "Retailer",
          "type": "address"
        },
        {
          "indexed": false,
          "internalType": "uint256",
          "name": "status",
          "type": "uint256"
        }
      ],
      "name": "MedicineStatus",
      "type": "event"
    },
    {
      "constant": false,
      "inputs": [
        {
          "internalType": "address",
          "name": "rawmaterialAddress",
          "type": "address"
        }
      ],
      "name": "rawPackageReceived",
      "outputs": [],
      "payable": false,
      "stateMutability": "nonpayable",
      "type": "function"
    },
    {
      "constant": true,
      "inputs": [],
      "name": "getPackagesCountManufacturer",
      "outputs": [
        {
          "internalType": "uint256",
          "name": "",
          "type": "uint256"
        }
      ],
      "payable": false,
      "stateMutability": "view",
      "type": "function"
    },
    {
      "constant": true,
      "inputs": [
        {
          "internalType": "uint256",
          "name": "index",
          "type": "uint256"
        }
      ],
      "name": "getPackageIdByIndexManufacturer",
      "outputs": [
        {
          "internalType": "address",
          "name": "",
          "type": "address"
        }
      ],
      "payable": false,
      "stateMutability": "view",
      "type": "function"
    },
    {
      "constant": false,
      "inputs": [
        {
          "internalType": "string",
          "name": "_description",
          "type": "string"
        },
        {
          "internalType": "address",
          "name": "_rawmaterial",
          "type": "address"
        },
        {
          "internalType": "uint256",
          "name": "_quantity",
          "type": "uint256"
        },
        {
          "internalType": "address",
          "name": "_shipper",
          "type": "address"
        },
        {
          "internalType": "address",
          "name": "_distributor",
          "type": "address"
        }
      ],
      "name": "manufactureMedicine",
      "outputs": [],
      "payable": false,
      "stateMutability": "nonpayable",
      "type": "function"
    },
    {
      "constant": true,
      "inputs": [],
      "name": "getManufacturedMedicineCountManufacturer",
      "outputs": [
        {
          "internalType": "uint256",
          "name": "",
          "type": "uint256"
        }
      ],
      "payable": false,
      "stateMutability": "view",
      "type": "function"
    },
    {
      "constant": true,
      "inputs": [
        {
          "internalType": "uint256",
          "name": "index",
          "type": "uint256"
        }
      ],
      "name": "getManufacturedMedicineIdByIndexManufacturer",
      "outputs": [
        {
          "internalType": "address",
          "name": "",
          "type": "address"
        }
      ],
      "payable": false,
      "stateMutability": "view",
      "type": "function"
    },
    {
      "constant": false,
      "inputs": [
        {
          "internalType": "string",
          "name": "_hash",
          "type": "string"
        }
      ],
      "name": "setHash",
      "outputs": [],
      "payable": false,
      "stateMutability": "nonpayable",
      "type": "function"
    },
    {
      "constant": true,
      "inputs": [],
      "name": "getHash",
      "outputs": [
        {
          "internalType": "string",
          "name": "",
          "type": "string"
        }
      ],
      "payable": false,
      "stateMutability": "view",
      "type": "function"
    },
    {
      "constant": false,
      "inputs": [
        {
          "internalType": "address",
          "name": "_batchId",
          "type": "address"
        },
        {
          "internalType": "address",
          "name": "_shipper",
          "type": "address"
        },
        {
          "internalType": "address",
          "name": "_retailer",
          "type": "address"
        }
      ],
      "name": "transferMedicineDistributorToRetailer",
      "outputs": [],
      "payable": false,
      "stateMutability": "nonpayable",
      "type": "function"
    },
    {
      "constant": true,
      "inputs": [],
      "name": "getBatchesCountDistributorToRetailer",
      "outputs": [
        {
          "internalType": "uint256",
          "name": "",
          "type": "uint256"
        }
      ],
      "payable": false,
      "stateMutability": "view",
      "type": "function"
    },
    {
      "constant": true,
      "inputs": [
        {
          "internalType": "uint256",
          "name": "index",
          "type": "uint256"
        }
      ],
      "name": "getBatchesIdByIndexDistributorToRetailer",
      "outputs": [
        {
          "internalType": "address",
          "name": "",
          "type": "address"
        }
      ],
      "payable": false,
      "stateMutability": "view",
      "type": "function"
    },
    {
      "constant": true,
      "inputs": [
        {
          "internalType": "address",
          "name": "_batchId",
          "type": "address"
        }
      ],
      "name": "getSubContractDistributorToRetailer",
      "outputs": [
        {
          "internalType": "address",
          "name": "",
          "type": "address"
        }
      ],
      "payable": false,
      "stateMutability": "view",
      "type": "function"
    },
    {
      "constant": false,
      "inputs": [
        {
          "internalType": "address",
          "name": "_batchId",
          "type": "address"
        },
        {
          "internalType": "address",
          "name": "_distributorAddress",
          "type": "address"
        }
      ],
      "name": "medicineReceivedAtRetailer",
      "outputs": [],
      "payable": false,
      "stateMutability": "nonpayable",
      "type": "function"
    },
    {
      "constant": false,
      "inputs": [
        {
          "internalType": "address",
          "name": "_batchId",
          "type": "address"
        },
        {
          "internalType": "uint256",
          "name": "_status",
          "type": "uint256"
        }
      ],
      "name": "updateSaleStatus",
      "outputs": [],
      "payable": false,
      "stateMutability": "nonpayable",
      "type": "function"
    },
    {
      "constant": true,
      "inputs": [
        {
          "internalType": "address",
          "name": "_batchId",
          "type": "address"
        }
      ],
      "name": "salesInfo",
      "outputs": [
        {
          "internalType": "uint256",
          "name": "",
          "type": "uint256"
        }
      ],
      "payable": false,
      "stateMutability": "view",
      "type": "function"
    },
    {
      "constant": true,
      "inputs": [],
      "name": "getBatchesCountRetailer",
      "outputs": [
        {
          "internalType": "uint256",
          "name": "",
          "type": "uint256"
        }
      ],
      "payable": false,
      "stateMutability": "view",
      "type": "function"
    },
    {
      "constant": true,
      "inputs": [
        {
          "internalType": "uint256",
          "name": "index",
          "type": "uint256"
        }
      ],
      "name": "getBatchedIdByIndexRetailer",
      "outputs": [
        {
          "internalType": "address",
          "name": "",
          "type": "address"
        }
      ],
      "payable": false,
      "stateMutability": "view",
      "type": "function"
    }
  ],
  "bytecode": "0x608060405234801561001057600080fd5b506040516145e13803806145e18339818101604052602081101561003357600080fd5b8101908080519060200190929190505050806000806101000a81548173ffffffffffffffffffffffffffffffffffffffff021916908373ffffffffffffffffffffffffffffffffffffffff1602179055505061454d806100946000396000f3fe60806040523480156200001157600080fd5b5060043610620001245760003560e01c8063772dd67211620000b1578063bb8ee1c5116200007b578063bb8ee1c514620006ae578063bc8c5b1c1462000709578063d13319c41462000750578063d7bff37014620007d8578063eae3c20714620007f85762000124565b8063772dd672146200051957806380c2d0d414620005395780638c59adc214620005c0578063b4b5952814620006475762000124565b806347d7260111620000f357806347d72601146200029b5780634a9f386f146200030c578063559f6acd14620004375780635a34a7a614620004a85762000124565b8063030f561014620001295780630cf97254146200014957806312840c6414620001695780631ed83fd414620001da575b600080fd5b6200013362000849565b6040518082815260200191505060405180910390f35b62000153620009ed565b6040518082815260200191505060405180910390f35b62000198600480360360208110156200018157600080fd5b810190808035906020019092919050505062000b91565b604051808273ffffffffffffffffffffffffffffffffffffffff1673ffffffffffffffffffffffffffffffffffffffff16815260200191505060405180910390f35b6200029960048036036020811015620001f257600080fd5b81019080803590602001906401000000008111156200021057600080fd5b8201836020820111156200022357600080fd5b803590602001918460018302840111640100000000831117156200024657600080fd5b91908080601f016020809104026020016040519081016040528093929190818152602001838380828437600081840152601f19601f82011690508083019250505050505050919291929050505062000d6a565b005b620002ca60048036036020811015620002b357600080fd5b810190808035906020019092919050505062000dc3565b604051808273ffffffffffffffffffffffffffffffffffffffff1673ffffffffffffffffffffffffffffffffffffffff16815260200191505060405180910390f35b62000435600480360360a08110156200032457600080fd5b81019080803590602001906401000000008111156200034257600080fd5b8201836020820111156200035557600080fd5b803590602001918460018302840111640100000000831117156200037857600080fd5b91908080601f016020809104026020016040519081016040528093929190818152602001838380828437600081840152601f19601f820116905080830192505050505050509192919290803573ffffffffffffffffffffffffffffffffffffffff16906020019092919080359060200190929190803573ffffffffffffffffffffffffffffffffffffffff169060200190929190803573ffffffffffffffffffffffffffffffffffffffff16906020019092919050505062000f9c565b005b62000466600480360360208110156200044f57600080fd5b8101908080359060200190929190505050620013c4565b604051808273ffffffffffffffffffffffffffffffffffffffff1673ffffffffffffffffffffffffffffffffffffffff16815260200191505060405180910390f35b620004d760048036036020811015620004c057600080fd5b81019080803590602001909291905050506200159d565b604051808273ffffffffffffffffffffffffffffffffffffffff1673ffffffffffffffffffffffffffffffffffffffff16815260200191505060405180910390f35b6200052362001776565b6040518082815260200191505060405180910390f35b620005be600480360360608110156200055157600080fd5b81019080803573ffffffffffffffffffffffffffffffffffffffff169060200190929190803573ffffffffffffffffffffffffffffffffffffffff169060200190929190803573ffffffffffffffffffffffffffffffffffffffff1690602001909291905050506200191a565b005b6200060560048036036020811015620005d857600080fd5b81019080803573ffffffffffffffffffffffffffffffffffffffff16906020019092919050505062001d59565b604051808273ffffffffffffffffffffffffffffffffffffffff1673ffffffffffffffffffffffffffffffffffffffff16815260200191505060405180910390f35b620006ac600480360360408110156200065f57600080fd5b81019080803573ffffffffffffffffffffffffffffffffffffffff169060200190929190803573ffffffffffffffffffffffffffffffffffffffff16906020019092919050505062001dc2565b005b620006f360048036036020811015620006c657600080fd5b81019080803573ffffffffffffffffffffffffffffffffffffffff169060200190929190505050620020fe565b6040518082815260200191505060405180910390f35b6200074e600480360360208110156200072157600080fd5b81019080803573ffffffffffffffffffffffffffffffffffffffff16906020019092919050505062002160565b005b6200075a620023f9565b6040518080602001828103825283818151815260200191508051906020019080838360005b838110156200079c5780820151818401526020810190506200077f565b50505050905090810190601f168015620007ca5780820380516001836020036101000a031916815260200191505b509250505060405180910390f35b620007e2620024dc565b6040518082815260200191505060405180910390f35b62000847600480360360408110156200081057600080fd5b81019080803573ffffffffffffffffffffffffffffffffffffffff1690602001909291908035906020019092919050505062002680565b005b6000600360068111156200085957fe5b6000809054906101000a900473ffffffffffffffffffffffffffffffffffffffff1673ffffffffffffffffffffffffffffffffffffffff166344276733336040518263ffffffff1660e01b8152600401808273ffffffffffffffffffffffffffffffffffffffff1673ffffffffffffffffffffffffffffffffffffffff16815260200191505060206040518083038186803b158015620008f857600080fd5b505afa1580156200090d573d6000803e3d6000fd5b505050506040513d60208110156200092457600080fd5b810190808051906020019092919050505060068111156200094157fe5b60068111156200094d57fe5b14620009a5576040517f08c379a0000000000000000000000000000000000000000000000000000000008152600401808060200182810382526029815260200180620044a46029913960400191505060405180910390fd5b600360003373ffffffffffffffffffffffffffffffffffffffff1673ffffffffffffffffffffffffffffffffffffffff16815260200190815260200160002080549050905090565b600060036006811115620009fd57fe5b6000809054906101000a900473ffffffffffffffffffffffffffffffffffffffff1673ffffffffffffffffffffffffffffffffffffffff166344276733336040518263ffffffff1660e01b8152600401808273ffffffffffffffffffffffffffffffffffffffff1673ffffffffffffffffffffffffffffffffffffffff16815260200191505060206040518083038186803b15801562000a9c57600080fd5b505afa15801562000ab1573d6000803e3d6000fd5b505050506040513d602081101562000ac857600080fd5b8101908080519060200190929190505050600681111562000ae557fe5b600681111562000af157fe5b1462000b49576040517f08c379a0000000000000000000000000000000000000000000000000000000008152600401808060200182810382526029815260200180620044a46029913960400191505060405180910390fd5b600160003373ffffffffffffffffffffffffffffffffffffffff1673ffffffffffffffffffffffffffffffffffffffff16815260200190815260200160002080549050905090565b60006004600681111562000ba157fe5b6000809054906101000a900473ffffffffffffffffffffffffffffffffffffffff1673ffffffffffffffffffffffffffffffffffffffff166344276733336040518263ffffffff1660e01b8152600401808273ffffffffffffffffffffffffffffffffffffffff1673ffffffffffffffffffffffffffffffffffffffff16815260200191505060206040518083038186803b15801562000c4057600080fd5b505afa15801562000c55573d6000803e3d6000fd5b505050506040513d602081101562000c6c57600080fd5b8101908080519060200190929190505050600681111562000c8957fe5b600681111562000c9557fe5b1462000ced576040517f08c379a0000000000000000000000000000000000000000000000000000000008152600401808060200182810382526028815260200180620044cd6028913960400191505060405180910390fd5b600460003373ffffffffffffffffffffffffffffffffffffffff1673ffffffffffffffffffffffffffffffffffffffff168152602001908152602001600020828154811062000d3857fe5b9060005260206000200160009054906101000a900473ffffffffffffffffffffffffffffffffffffffff169050919050565b80600260003373ffffffffffffffffffffffffffffffffffffffff1673ffffffffffffffffffffffffffffffffffffffff168152602001908152602001600020908051906020019062000dbf929190620029c4565b5050565b60006005600681111562000dd357fe5b6000809054906101000a900473ffffffffffffffffffffffffffffffffffffffff1673ffffffffffffffffffffffffffffffffffffffff166344276733336040518263ffffffff1660e01b8152600401808273ffffffffffffffffffffffffffffffffffffffff1673ffffffffffffffffffffffffffffffffffffffff16815260200191505060206040518083038186803b15801562000e7257600080fd5b505afa15801562000e87573d6000803e3d6000fd5b505050506040513d602081101562000e9e57600080fd5b8101908080519060200190929190505050600681111562000ebb57fe5b600681111562000ec757fe5b1462000f1f576040517f08c379a0000000000000000000000000000000000000000000000000000000008152600401808060200182810382526024815260200180620044f56024913960400191505060405180910390fd5b600660003373ffffffffffffffffffffffffffffffffffffffff1673ffffffffffffffffffffffffffffffffffffffff168152602001908152602001600020828154811062000f6a57fe5b9060005260206000200160009054906101000a900473ffffffffffffffffffffffffffffffffffffffff169050919050565b6003600681111562000faa57fe5b6000809054906101000a900473ffffffffffffffffffffffffffffffffffffffff1673ffffffffffffffffffffffffffffffffffffffff166344276733336040518263ffffffff1660e01b8152600401808273ffffffffffffffffffffffffffffffffffffffff1673ffffffffffffffffffffffffffffffffffffffff16815260200191505060206040518083038186803b1580156200104957600080fd5b505afa1580156200105e573d6000803e3d6000fd5b505050506040513d60208110156200107557600080fd5b810190808051906020019092919050505060068111156200109257fe5b60068111156200109e57fe5b14620010f6576040517f08c379a0000000000000000000000000000000000000000000000000000000008152600401808060200182810382526029815260200180620044a46029913960400191505060405180910390fd5b60003386868686866040516200110c9062002a4b565b808773ffffffffffffffffffffffffffffffffffffffff1673ffffffffffffffffffffffffffffffffffffffff168152602001806020018673ffffffffffffffffffffffffffffffffffffffff1673ffffffffffffffffffffffffffffffffffffffff1681526020018581526020018473ffffffffffffffffffffffffffffffffffffffff1673ffffffffffffffffffffffffffffffffffffffff1681526020018373ffffffffffffffffffffffffffffffffffffffff1673ffffffffffffffffffffffffffffffffffffffff168152602001828103825287818151815260200191508051906020019080838360005b8381101562001219578082015181840152602081019050620011fc565b50505050905090810190601f168015620012475780820380516001836020036101000a031916815260200191505b50975050505050505050604051809103906000f0801580156200126e573d6000803e3d6000fd5b509050600360003373ffffffffffffffffffffffffffffffffffffffff1673ffffffffffffffffffffffffffffffffffffffff1681526020019081526020016000208190806001815401808255809150509060018203906000526020600020016000909192909190916101000a81548173ffffffffffffffffffffffffffffffffffffffff021916908373ffffffffffffffffffffffffffffffffffffffff160217905550508173ffffffffffffffffffffffffffffffffffffffff163373ffffffffffffffffffffffffffffffffffffffff168273ffffffffffffffffffffffffffffffffffffffff167fa464e8d0d73596ec44ad2f56ca60a8fc4ef75e1b7b0b3f46fe1e073fb5da11b586604051808273ffffffffffffffffffffffffffffffffffffffff1673ffffffffffffffffffffffffffffffffffffffff16815260200191505060405180910390a4505050505050565b600060036006811115620013d457fe5b6000809054906101000a900473ffffffffffffffffffffffffffffffffffffffff1673ffffffffffffffffffffffffffffffffffffffff166344276733336040518263ffffffff1660e01b8152600401808273ffffffffffffffffffffffffffffffffffffffff1673ffffffffffffffffffffffffffffffffffffffff16815260200191505060206040518083038186803b1580156200147357600080fd5b505afa15801562001488573d6000803e3d6000fd5b505050506040513d60208110156200149f57600080fd5b81019080805190602001909291905050506006811115620014bc57fe5b6006811115620014c857fe5b1462001520576040517f08c379a0000000000000000000000000000000000000000000000000000000008152600401808060200182810382526029815260200180620044a46029913960400191505060405180910390fd5b600360003373ffffffffffffffffffffffffffffffffffffffff1673ffffffffffffffffffffffffffffffffffffffff16815260200190815260200160002082815481106200156b57fe5b9060005260206000200160009054906101000a900473ffffffffffffffffffffffffffffffffffffffff169050919050565b600060036006811115620015ad57fe5b6000809054906101000a900473ffffffffffffffffffffffffffffffffffffffff1673ffffffffffffffffffffffffffffffffffffffff166344276733336040518263ffffffff1660e01b8152600401808273ffffffffffffffffffffffffffffffffffffffff1673ffffffffffffffffffffffffffffffffffffffff16815260200191505060206040518083038186803b1580156200164c57600080fd5b505afa15801562001661573d6000803e3d6000fd5b505050506040513d60208110156200167857600080fd5b810190808051906020019092919050505060068111156200169557fe5b6006811115620016a157fe5b14620016f9576040517f08c379a0000000000000000000000000000000000000000000000000000000008152600401808060200182810382526029815260200180620044a46029913960400191505060405180910390fd5b600160003373ffffffffffffffffffffffffffffffffffffffff1673ffffffffffffffffffffffffffffffffffffffff16815260200190815260200160002082815481106200174457fe5b9060005260206000200160009054906101000a900473ffffffffffffffffffffffffffffffffffffffff169050919050565b6000600560068111156200178657fe5b6000809054906101000a900473ffffffffffffffffffffffffffffffffffffffff1673ffffffffffffffffffffffffffffffffffffffff166344276733336040518263ffffffff1660e01b8152600401808273ffffffffffffffffffffffffffffffffffffffff1673ffffffffffffffffffffffffffffffffffffffff16815260200191505060206040518083038186803b1580156200182557600080fd5b505afa1580156200183a573d6000803e3d6000fd5b505050506040513d60208110156200185157600080fd5b810190808051906020019092919050505060068111156200186e57fe5b60068111156200187a57fe5b14620018d2576040517f08c379a0000000000000000000000000000000000000000000000000000000008152600401808060200182810382526024815260200180620044f56024913960400191505060405180910390fd5b600660003373ffffffffffffffffffffffffffffffffffffffff1673ffffffffffffffffffffffffffffffffffffffff16815260200190815260200160002080549050905090565b600460068111156200192857fe5b6000809054906101000a900473ffffffffffffffffffffffffffffffffffffffff1673ffffffffffffffffffffffffffffffffffffffff166344276733336040518263ffffffff1660e01b8152600401808273ffffffffffffffffffffffffffffffffffffffff1673ffffffffffffffffffffffffffffffffffffffff16815260200191505060206040518083038186803b158015620019c757600080fd5b505afa158015620019dc573d6000803e3d6000fd5b505050506040513d6020811015620019f357600080fd5b8101908080519060200190929190505050600681111562001a1057fe5b600681111562001a1c57fe5b14801562001ad857508273ffffffffffffffffffffffffffffffffffffffff1663bfe109286040518163ffffffff1660e01b815260040160206040518083038186803b15801562001a6c57600080fd5b505afa15801562001a81573d6000803e3d6000fd5b505050506040513d602081101562001a9857600080fd5b810190808051906020019092919050505073ffffffffffffffffffffffffffffffffffffffff163373ffffffffffffffffffffffffffffffffffffffff16145b62001b2f576040517f08c379a0000000000000000000000000000000000000000000000000000000008152600401808060200182810382526028815260200180620044cd6028913960400191505060405180910390fd5b60008333848460405162001b439062002a59565b808573ffffffffffffffffffffffffffffffffffffffff1673ffffffffffffffffffffffffffffffffffffffff1681526020018473ffffffffffffffffffffffffffffffffffffffff1673ffffffffffffffffffffffffffffffffffffffff1681526020018373ffffffffffffffffffffffffffffffffffffffff1673ffffffffffffffffffffffffffffffffffffffff1681526020018273ffffffffffffffffffffffffffffffffffffffff1673ffffffffffffffffffffffffffffffffffffffff168152602001945050505050604051809103906000f08015801562001c2f573d6000803e3d6000fd5b509050600460003373ffffffffffffffffffffffffffffffffffffffff1673ffffffffffffffffffffffffffffffffffffffff1681526020019081526020016000208190806001815401808255809150509060018203906000526020600020016000909192909190916101000a81548173ffffffffffffffffffffffffffffffffffffffff021916908373ffffffffffffffffffffffffffffffffffffffff1602179055505080600560008673ffffffffffffffffffffffffffffffffffffffff1673ffffffffffffffffffffffffffffffffffffffff16815260200190815260200160002060006101000a81548173ffffffffffffffffffffffffffffffffffffffff021916908373ffffffffffffffffffffffffffffffffffffffff16021790555050505050565b6000600560008373ffffffffffffffffffffffffffffffffffffffff1673ffffffffffffffffffffffffffffffffffffffff16815260200190815260200160002060009054906101000a900473ffffffffffffffffffffffffffffffffffffffff169050919050565b6005600681111562001dd057fe5b6000809054906101000a900473ffffffffffffffffffffffffffffffffffffffff1673ffffffffffffffffffffffffffffffffffffffff166344276733336040518263ffffffff1660e01b8152600401808273ffffffffffffffffffffffffffffffffffffffff1673ffffffffffffffffffffffffffffffffffffffff16815260200191505060206040518083038186803b15801562001e6f57600080fd5b505afa15801562001e84573d6000803e3d6000fd5b505050506040513d602081101562001e9b57600080fd5b8101908080519060200190929190505050600681111562001eb857fe5b600681111562001ec457fe5b1462001f1c576040517f08c379a00000000000000000000000000000000000000000000000000000000081526004018080602001828103825260258152602001806200447f6025913960400191505060405180910390fd5b8073ffffffffffffffffffffffffffffffffffffffff1663b4779a3c83336040518363ffffffff1660e01b8152600401808373ffffffffffffffffffffffffffffffffffffffff1673ffffffffffffffffffffffffffffffffffffffff1681526020018273ffffffffffffffffffffffffffffffffffffffff1673ffffffffffffffffffffffffffffffffffffffff16815260200192505050600060405180830381600087803b15801562001fd057600080fd5b505af115801562001fe5573d6000803e3d6000fd5b50505050600660003373ffffffffffffffffffffffffffffffffffffffff1673ffffffffffffffffffffffffffffffffffffffff1681526020019081526020016000208290806001815401808255809150509060018203906000526020600020016000909192909190916101000a81548173ffffffffffffffffffffffffffffffffffffffff021916908373ffffffffffffffffffffffffffffffffffffffff16021790555050600160048111156200209a57fe5b600760008473ffffffffffffffffffffffffffffffffffffffff1673ffffffffffffffffffffffffffffffffffffffff16815260200190815260200160002060006101000a81548160ff02191690836004811115620020f557fe5b02179055505050565b6000600760008373ffffffffffffffffffffffffffffffffffffffff1673ffffffffffffffffffffffffffffffffffffffff16815260200190815260200160002060009054906101000a900460ff1660048111156200215957fe5b9050919050565b600360068111156200216e57fe5b6000809054906101000a900473ffffffffffffffffffffffffffffffffffffffff1673ffffffffffffffffffffffffffffffffffffffff166344276733336040518263ffffffff1660e01b8152600401808273ffffffffffffffffffffffffffffffffffffffff1673ffffffffffffffffffffffffffffffffffffffff16815260200191505060206040518083038186803b1580156200220d57600080fd5b505afa15801562002222573d6000803e3d6000fd5b505050506040513d60208110156200223957600080fd5b810190808051906020019092919050505060068111156200225657fe5b60068111156200226257fe5b14620022ba576040517f08c379a0000000000000000000000000000000000000000000000000000000008152600401808060200182810382526029815260200180620044566029913960400191505060405180910390fd5b8073ffffffffffffffffffffffffffffffffffffffff16631f29567a336040518263ffffffff1660e01b8152600401808273ffffffffffffffffffffffffffffffffffffffff1673ffffffffffffffffffffffffffffffffffffffff168152602001915050600060405180830381600087803b1580156200233a57600080fd5b505af11580156200234f573d6000803e3d6000fd5b50505050600160003373ffffffffffffffffffffffffffffffffffffffff1673ffffffffffffffffffffffffffffffffffffffff1681526020019081526020016000208190806001815401808255809150509060018203906000526020600020016000909192909190916101000a81548173ffffffffffffffffffffffffffffffffffffffff021916908373ffffffffffffffffffffffffffffffffffffffff1602179055505050565b6060600260003373ffffffffffffffffffffffffffffffffffffffff1673ffffffffffffffffffffffffffffffffffffffff1681526020019081526020016000208054600181600116156101000203166002900480601f016020809104026020016040519081016040528092919081815260200182805460018160011615610100020316600290048015620024d25780601f10620024a657610100808354040283529160200191620024d2565b820191906000526020600020905b815481529060010190602001808311620024b457829003601f168201915b5050505050905090565b600060046006811115620024ec57fe5b6000809054906101000a900473ffffffffffffffffffffffffffffffffffffffff1673ffffffffffffffffffffffffffffffffffffffff166344276733336040518263ffffffff1660e01b8152600401808273ffffffffffffffffffffffffffffffffffffffff1673ffffffffffffffffffffffffffffffffffffffff16815260200191505060206040518083038186803b1580156200258b57600080fd5b505afa158015620025a0573d6000803e3d6000fd5b505050506040513d6020811015620025b757600080fd5b81019080805190602001909291905050506006811115620025d457fe5b6006811115620025e057fe5b1462002638576040517f08c379a0000000000000000000000000000000000000000000000000000000008152600401808060200182810382526028815260200180620044cd6028913960400191505060405180910390fd5b600460003373ffffffffffffffffffffffffffffffffffffffff1673ffffffffffffffffffffffffffffffffffffffff16815260200190815260200160002080549050905090565b600560068111156200268e57fe5b6000809054906101000a900473ffffffffffffffffffffffffffffffffffffffff1673ffffffffffffffffffffffffffffffffffffffff166344276733336040518263ffffffff1660e01b8152600401808273ffffffffffffffffffffffffffffffffffffffff1673ffffffffffffffffffffffffffffffffffffffff16815260200191505060206040518083038186803b1580156200272d57600080fd5b505afa15801562002742573d6000803e3d6000fd5b505050506040513d60208110156200275957600080fd5b810190808051906020019092919050505060068111156200277657fe5b60068111156200278257fe5b14620027f6576040517f08c379a000000000000000000000000000000000000000000000000000000000815260040180806020018281038252601f8152602001807f4f6e792072657461696c65722063616e2075706461746520737461747573210081525060200191505060405180910390fd5b600160048111156200280457fe5b600760008473ffffffffffffffffffffffffffffffffffffffff1673ffffffffffffffffffffffffffffffffffffffff16815260200190815260200160002060009054906101000a900460ff1660048111156200285d57fe5b14620028d1576040517f08c379a000000000000000000000000000000000000000000000000000000000815260040180806020018281038252601b8152602001807f4d65646963696e65206973206e6f742061742072657461696c6572000000000081525060200191505060405180910390fd5b806004811115620028de57fe5b600760008473ffffffffffffffffffffffffffffffffffffffff1673ffffffffffffffffffffffffffffffffffffffff16815260200190815260200160002060006101000a81548160ff021916908360048111156200293957fe5b02179055503373ffffffffffffffffffffffffffffffffffffffff167f778762ccb04f5a8838ed8914b13eb6f118224696959cbfa0cfea54133f76a7d58383604051808373ffffffffffffffffffffffffffffffffffffffff1673ffffffffffffffffffffffffffffffffffffffff1681526020018281526020019250505060405180910390a25050565b828054600181600116156101000203166002900490600052602060002090601f016020900481019282601f1062002a0757805160ff191683800117855562002a38565b8280016001018555821562002a38579182015b8281111562002a3757825182559160200191906001019062002a1a565b5b50905062002a47919062002a67565b5090565b6112c88062002a9083390190565b6106fe8062003d5883390190565b62002a8c91905b8082111562002a8857600081600090555060010162002a6e565b5090565b9056fe60806040523480156200001157600080fd5b50604051620012c8380380620012c8833981810160405260c08110156200003757600080fd5b8101908080519060200190929190805160405193929190846401000000008211156200006257600080fd5b838201915060208201858111156200007957600080fd5b82518660018202830111640100000000821117156200009757600080fd5b8083526020830192505050908051906020019080838360005b83811015620000cd578082015181840152602081019050620000b0565b50505050905090810190601f168015620000fb5780820380516001836020036101000a031916815260200191505b5060405260200180519060200190929190805190602001909291908051906020019092919080519060200190929190505050856000806101000a81548173ffffffffffffffffffffffffffffffffffffffff021916908373ffffffffffffffffffffffffffffffffffffffff16021790555085600560006101000a81548173ffffffffffffffffffffffffffffffffffffffff021916908373ffffffffffffffffffffffffffffffffffffffff1602179055508460019080519060200190620001c69291906200029d565b5083600260006101000a81548173ffffffffffffffffffffffffffffffffffffffff021916908373ffffffffffffffffffffffffffffffffffffffff1602179055508260038190555081600460006101000a81548173ffffffffffffffffffffffffffffffffffffffff021916908373ffffffffffffffffffffffffffffffffffffffff16021790555080600660006101000a81548173ffffffffffffffffffffffffffffffffffffffff021916908373ffffffffffffffffffffffffffffffffffffffff1602179055505050505050506200034c565b828054600181600116156101000203166002900490600052602060002090601f016020900481019282601f10620002e057805160ff191683800117855562000311565b8280016001018555821562000311579182015b8281111562000310578251825591602001919060010190620002f3565b5b50905062000320919062000324565b5090565b6200034991905b80821115620003455760008160009055506001016200032b565b5090565b90565b610f6c806200035c6000396000f3fe608060405234801561001057600080fd5b50600436106100885760003560e01c8063ef4888031161005b578063ef488803146101a3578063f64cd21e146101e7578063f74fdde11461022b578063fc7923311461026f57610088565b80634c1249fc1461008d57806373b037db146100d7578063bfe10928146100f5578063e979c9d41461013f575b600080fd5b6100956103c5565b604051808273ffffffffffffffffffffffffffffffffffffffff1673ffffffffffffffffffffffffffffffffffffffff16815260200191505060405180910390f35b6100df6103eb565b6040518082815260200191505060405180910390f35b6100fd61040d565b604051808273ffffffffffffffffffffffffffffffffffffffff1673ffffffffffffffffffffffffffffffffffffffff16815260200191505060405180910390f35b6101a16004803603604081101561015557600080fd5b81019080803573ffffffffffffffffffffffffffffffffffffffff169060200190929190803573ffffffffffffffffffffffffffffffffffffffff169060200190929190505050610433565b005b6101e5600480360360208110156101b957600080fd5b81019080803573ffffffffffffffffffffffffffffffffffffffff1690602001909291905050506106bd565b005b610229600480360360208110156101fd57600080fd5b81019080803573ffffffffffffffffffffffffffffffffffffffff169060200190929190505050610905565b005b61026d6004803603602081101561024157600080fd5b81019080803573ffffffffffffffffffffffffffffffffffffffff169060200190929190505050610b4c565b005b610277610d76565b604051808773ffffffffffffffffffffffffffffffffffffffff1673ffffffffffffffffffffffffffffffffffffffff168152602001806020018673ffffffffffffffffffffffffffffffffffffffff1673ffffffffffffffffffffffffffffffffffffffff1681526020018581526020018473ffffffffffffffffffffffffffffffffffffffff1673ffffffffffffffffffffffffffffffffffffffff1681526020018373ffffffffffffffffffffffffffffffffffffffff1673ffffffffffffffffffffffffffffffffffffffff168152602001828103825287818151815260200191508051906020019080838360005b8381101561038557808201518184015260208101905061036a565b50505050905090810190601f1680156103b25780820380516001836020036101000a031916815260200191505b5097505050505050505060405180910390f35b600760009054906101000a900473ffffffffffffffffffffffffffffffffffffffff1681565b6000600760149054906101000a900460ff16600481111561040857fe5b905090565b600660009054906101000a900473ffffffffffffffffffffffffffffffffffffffff1681565b600660009054906101000a900473ffffffffffffffffffffffffffffffffffffffff1673ffffffffffffffffffffffffffffffffffffffff168173ffffffffffffffffffffffffffffffffffffffff16146104d9576040517f08c379a0000000000000000000000000000000000000000000000000000000008152600401808060200182810382526028815260200180610f106028913960400191505060405180910390fd5b600160048111156104e657fe5b60048111156104f157fe5b600760149054906101000a900460ff16600481111561050c57fe5b1461057f576040517f08c379a000000000000000000000000000000000000000000000000000000000815260040180806020018281038252601e8152602001807f746865207061636b616765206973206e6f74207769746820736869706572000081525060200191505060405180910390fd5b6002600481111561058c57fe5b600760146101000a81548160ff021916908360048111156105a957fe5b021790555081600760006101000a81548173ffffffffffffffffffffffffffffffffffffffff021916908373ffffffffffffffffffffffffffffffffffffffff160217905550600760009054906101000a900473ffffffffffffffffffffffffffffffffffffffff1673ffffffffffffffffffffffffffffffffffffffff16600460009054906101000a900473ffffffffffffffffffffffffffffffffffffffff1673ffffffffffffffffffffffffffffffffffffffff163073ffffffffffffffffffffffffffffffffffffffff167f7e89c4b1a4e2b51aae84eb1f90e8a34cb792ece5ac5cb63db4830c891220b28d60016002604051808381526020018281526020019250505060405180910390a45050565b600460009054906101000a900473ffffffffffffffffffffffffffffffffffffffff1673ffffffffffffffffffffffffffffffffffffffff168173ffffffffffffffffffffffffffffffffffffffff1614610763576040517f08c379a000000000000000000000000000000000000000000000000000000000815260040180806020018281038252602e815260200180610ee2602e913960400191505060405180910390fd5b6002600481111561077057fe5b600481111561077b57fe5b600760149054906101000a900460ff16600481111561079657fe5b14610809576040517f08c379a00000000000000000000000000000000000000000000000000000000081526004018080602001828103825260208152602001807f746865207061636b616765206c65667420746865206469737472696275746f7281525060200191505060405180910390fd5b6003600481111561081657fe5b600760146101000a81548160ff0219169083600481111561083357fe5b0217905550600760009054906101000a900473ffffffffffffffffffffffffffffffffffffffff1673ffffffffffffffffffffffffffffffffffffffff16600460009054906101000a900473ffffffffffffffffffffffffffffffffffffffff1673ffffffffffffffffffffffffffffffffffffffff163073ffffffffffffffffffffffffffffffffffffffff167f7e89c4b1a4e2b51aae84eb1f90e8a34cb792ece5ac5cb63db4830c891220b28d60016003604051808381526020018281526020019250505060405180910390a450565b600760009054906101000a900473ffffffffffffffffffffffffffffffffffffffff1673ffffffffffffffffffffffffffffffffffffffff168173ffffffffffffffffffffffffffffffffffffffff16146109ab576040517f08c379a0000000000000000000000000000000000000000000000000000000008152600401808060200182810382526028815260200180610f106028913960400191505060405180910390fd5b600360048111156109b857fe5b60048111156109c357fe5b600760149054906101000a900460ff1660048111156109de57fe5b14610a51576040517f08c379a000000000000000000000000000000000000000000000000000000000815260040180806020018281038252601c8152602001807f746865207061636b616765206c6566742074686520736869707065720000000081525060200191505060405180910390fd5b600480811115610a5d57fe5b600760146101000a81548160ff02191690836004811115610a7a57fe5b0217905550600760009054906101000a900473ffffffffffffffffffffffffffffffffffffffff1673ffffffffffffffffffffffffffffffffffffffff16600460009054906101000a900473ffffffffffffffffffffffffffffffffffffffff1673ffffffffffffffffffffffffffffffffffffffff163073ffffffffffffffffffffffffffffffffffffffff167f7e89c4b1a4e2b51aae84eb1f90e8a34cb792ece5ac5cb63db4830c891220b28d60016004604051808381526020018281526020019250505060405180910390a450565b600460009054906101000a900473ffffffffffffffffffffffffffffffffffffffff1673ffffffffffffffffffffffffffffffffffffffff168173ffffffffffffffffffffffffffffffffffffffff1614610bf2576040517f08c379a000000000000000000000000000000000000000000000000000000000815260040180806020018281038252602e815260200180610ee2602e913960400191505060405180910390fd5b60006004811115610bff57fe5b6004811115610c0a57fe5b600760149054906101000a900460ff166004811115610c2557fe5b14610c7b576040517f08c379a0000000000000000000000000000000000000000000000000000000008152600401808060200182810382526021815260200180610ec16021913960400191505060405180910390fd5b60016004811115610c8857fe5b600760146101000a81548160ff02191690836004811115610ca557fe5b0217905550600660009054906101000a900473ffffffffffffffffffffffffffffffffffffffff1673ffffffffffffffffffffffffffffffffffffffff16600460009054906101000a900473ffffffffffffffffffffffffffffffffffffffff1673ffffffffffffffffffffffffffffffffffffffff163073ffffffffffffffffffffffffffffffffffffffff167f7e89c4b1a4e2b51aae84eb1f90e8a34cb792ece5ac5cb63db4830c891220b28d600180604051808381526020018281526020019250505060405180910390a450565b600060606000806000806000809054906101000a900473ffffffffffffffffffffffffffffffffffffffff166001600260009054906101000a900473ffffffffffffffffffffffffffffffffffffffff16600354600460009054906101000a900473ffffffffffffffffffffffffffffffffffffffff16600660009054906101000a900473ffffffffffffffffffffffffffffffffffffffff16848054600181600116156101000203166002900480601f016020809104026020016040519081016040528092919081815260200182805460018160011615610100020316600290048015610ea55780601f10610e7a57610100808354040283529160200191610ea5565b820191906000526020600020905b815481529060010190602001808311610e8857829003601f168201915b5050505050945095509550955095509550955090919293949556fe746865207061636b616765206c65667420746865206d616e756661637475726572546865207061636b6167652063616e206f6e6c79206265207069636b6564206279207468652073686970706572216f6e6c79206469737472696275746f722063616e207265636569766520746865207061636b616765a265627a7a72315820688facd79fae4e715c994bc01421d6e94032ab835676c252a7dbfaa612d5977664736f6c63430005100032608060405234801561001057600080fd5b506040516106fe3803806106fe8339818101604052608081101561003357600080fd5b8101908080519060200190929190805190602001909291908051906020019092919080519060200190929190505050826000806101000a81548173ffffffffffffffffffffffffffffffffffffffff021916908373ffffffffffffffffffffffffffffffffffffffff16021790555083600160006101000a81548173ffffffffffffffffffffffffffffffffffffffff021916908373ffffffffffffffffffffffffffffffffffffffff16021790555082600260006101000a81548173ffffffffffffffffffffffffffffffffffffffff021916908373ffffffffffffffffffffffffffffffffffffffff16021790555081600360006101000a81548173ffffffffffffffffffffffffffffffffffffffff021916908373ffffffffffffffffffffffffffffffffffffffff16021790555080600460006101000a81548173ffffffffffffffffffffffffffffffffffffffff021916908373ffffffffffffffffffffffffffffffffffffffff16021790555050505050610545806101b96000396000f3fe608060405234801561001057600080fd5b50600436106100415760003560e01c8063190d65de14610046578063b4779a3c146100aa578063e2785eee1461010e575b600080fd5b6100a86004803603604081101561005c57600080fd5b81019080803573ffffffffffffffffffffffffffffffffffffffff169060200190929190803573ffffffffffffffffffffffffffffffffffffffff16906020019092919050505061012c565b005b61010c600480360360408110156100c057600080fd5b81019080803573ffffffffffffffffffffffffffffffffffffffff169060200190929190803573ffffffffffffffffffffffffffffffffffffffff169060200190929190505050610313565b005b6101166104a4565b6040518082815260200191505060405180910390f35b600360009054906101000a900473ffffffffffffffffffffffffffffffffffffffff1673ffffffffffffffffffffffffffffffffffffffff168173ffffffffffffffffffffffffffffffffffffffff16146101d2576040517f08c379a00000000000000000000000000000000000000000000000000000000081526004018080602001828103825260278152602001806104ea6027913960400191505060405180910390fd5b600160028111156101df57fe5b600460146101000a81548160ff021916908360028111156101fc57fe5b02179055508173ffffffffffffffffffffffffffffffffffffffff1663e979c9d4600460009054906101000a900473ffffffffffffffffffffffffffffffffffffffff166000809054906101000a900473ffffffffffffffffffffffffffffffffffffffff166040518363ffffffff1660e01b8152600401808373ffffffffffffffffffffffffffffffffffffffff1673ffffffffffffffffffffffffffffffffffffffff1681526020018273ffffffffffffffffffffffffffffffffffffffff1673ffffffffffffffffffffffffffffffffffffffff16815260200192505050600060405180830381600087803b1580156102f757600080fd5b505af115801561030b573d6000803e3d6000fd5b505050505050565b8073ffffffffffffffffffffffffffffffffffffffff16600460009054906101000a900473ffffffffffffffffffffffffffffffffffffffff1673ffffffffffffffffffffffffffffffffffffffff16146103b9576040517f08c379a00000000000000000000000000000000000000000000000000000000081526004018080602001828103825260238152602001806104c76023913960400191505060405180910390fd5b6002808111156103c557fe5b600460146101000a81548160ff021916908360028111156103e257fe5b02179055508173ffffffffffffffffffffffffffffffffffffffff1663f64cd21e600460009054906101000a900473ffffffffffffffffffffffffffffffffffffffff166040518263ffffffff1660e01b8152600401808273ffffffffffffffffffffffffffffffffffffffff1673ffffffffffffffffffffffffffffffffffffffff168152602001915050600060405180830381600087803b15801561048857600080fd5b505af115801561049c573d6000803e3d6000fd5b505050505050565b6000600460149054906101000a900460ff1660028111156104c157fe5b90509056fe4f6e6c7920726563656976657220697320616c6c6f77656420746f20726563656976654f6e6c79205368697070657220697320616c6c6f77656420746f2070696368207061636b616765a265627a7a72315820e11b0edde591407bfb0c69302e1ad70b99360a04af9713f1458aa1ea39f70fbc64736f6c634300051000324f6e79206d616e7566616374757265722063616e207265636569766520746865207061636b616765734f6e792072657461696c65722063616e2061636365737320746869732066756e6374696f6e4f6e6c79204d616e75666163747572657220697320616c6c6f77656420746f2063616c6c20746869734f6e6c79204469737472696275746f7220697320616c6c6f77656420746f2063616c6c20746869734f6e792072657461696c65722063616e2063616c6c20746869732066756e6374696f6e21a265627a7a723158209683e16fde86424a5911826ea7cff50e072be24ddfe6bcc76f1d28d2edc4f27864736f6c63430005100032",
  "source": "pragma solidity >=0.5.0 <0.8.6;\r\n\r\nimport './Admin.sol';\r\nimport './Medicine.sol';\r\nimport './Distributor.sol';\r\nimport './RawMaterial.sol';\r\n\r\n\r\ncontract MedCycle{\r\n\r\n      enum roles{\r\n        norole,\r\n        supplier,\r\n        transporter,\r\n        manufacturer,\r\n        distributor,\r\n        retailer,\r\n        revoke\r\n    }\r\n\r\n    address admin;\r\n\r\n    constructor(address _admin) public {\r\n         admin=_admin;\r\n    }\r\n\r\n    /*****************************************************Manufacturer Section**************************************************/\r\n\r\n    mapping(address=>address[]) RawPackagesAtManufacturer;\r\n    mapping(address=>string) Hash;\r\n    mapping(address=>address[]) ManufacturedMedicine;\r\n\r\n     event MedicineNewBatch(\r\n        address indexed BatchId,\r\n        address indexed Manufacturer,\r\n        address shipper,\r\n        address indexed Receiver\r\n    );\r\n\r\n    function rawPackageReceived(address rawmaterialAddress) public {\r\n        require(roles(Admin(admin).getRole(msg.sender))==roles.manufacturer,\"Ony manufacturer can receive the packages\");\r\n        RawMaterial(rawmaterialAddress).receivePackage(msg.sender);\r\n        RawPackagesAtManufacturer[msg.sender].push(rawmaterialAddress);\r\n    }\r\n\r\n    function getPackagesCountManufacturer() public view returns(uint){\r\n        require(roles(Admin(admin).getRole(msg.sender))==roles.manufacturer,\"Only Manufacturer is allowed to call this\");\r\n        return RawPackagesAtManufacturer[msg.sender].length;\r\n    }\r\n\r\n    function getPackageIdByIndexManufacturer(uint index) public view returns(address){\r\n        require(roles(Admin(admin).getRole(msg.sender))==roles.manufacturer,\"Only Manufacturer is allowed to call this\");\r\n        return RawPackagesAtManufacturer[msg.sender][index];\r\n    } \r\n\r\n    function manufactureMedicine(\r\n        string memory _description,\r\n        address _rawmaterial,\r\n        uint _quantity,\r\n        address _shipper,\r\n        address _distributor\r\n        ) public {\r\n        require(roles(Admin(admin).getRole(msg.sender))==roles.manufacturer,\"Only Manufacturer is allowed to call this\");\r\n           Medicine newMedicine=new Medicine(\r\n                msg.sender,\r\n                 _description,\r\n                _rawmaterial,\r\n                _quantity,\r\n                _shipper,\r\n                 _distributor\r\n           ); \r\n           ManufacturedMedicine[msg.sender].push(address(newMedicine));\r\n           emit MedicineNewBatch(address(newMedicine), msg.sender, _shipper, _distributor);\r\n        }\r\n\r\n    function getManufacturedMedicineCountManufacturer() public view returns(uint){\r\n            require(roles(Admin(admin).getRole(msg.sender))==roles.manufacturer,\"Only Manufacturer is allowed to call this\");\r\n            return ManufacturedMedicine[msg.sender].length;\r\n    }\r\n\r\n    function getManufacturedMedicineIdByIndexManufacturer(uint index) public view returns(address){\r\n            require(roles(Admin(admin).getRole(msg.sender))==roles.manufacturer,\"Only Manufacturer is allowed to call this\");\r\n            return ManufacturedMedicine[msg.sender][index];\r\n    }\r\n\r\n    function setHash(string memory _hash) public {\r\n            Hash[msg.sender]=_hash;\r\n    }\r\n\r\n    function getHash() public view returns(string memory){\r\n            return Hash[msg.sender];\r\n    }\r\n\r\n    /***********************************************************Distributor Section********************************************************/\r\n\r\n    mapping(address => address[]) MedicineDistributorToRtailer;\r\n    mapping(address => address) MedicineDistributorToRtailerxContract;\r\n\r\n    function transferMedicineDistributorToRetailer(\r\n        address _batchId,\r\n        address _shipper,\r\n        address _retailer\r\n    ) public {\r\n            require(roles(Admin(admin).getRole(msg.sender))==roles.distributor &&\r\n             msg.sender == Medicine(_batchId).distributor(),\r\n            \"Only Distributor is allowed to call this\"\r\n            );\r\n\r\n            Distributor newPackage=new Distributor(\r\n                _batchId,\r\n                msg.sender,\r\n                _shipper,\r\n                _retailer\r\n            );\r\n\r\n            MedicineDistributorToRtailer[msg.sender].push(address(newPackage));\r\n            MedicineDistributorToRtailerxContract[_batchId]=address(newPackage);\r\n    }\r\n\r\n    function getBatchesCountDistributorToRetailer() public view returns(uint){\r\n         require(roles(Admin(admin).getRole(msg.sender))==roles.distributor,\r\n            \"Only Distributor is allowed to call this\"\r\n            );\r\n        return MedicineDistributorToRtailer[msg.sender].length;\r\n    }\r\n\r\n     function getBatchesIdByIndexDistributorToRetailer(uint index) public view returns(address){\r\n          require(roles(Admin(admin).getRole(msg.sender))==roles.distributor,\r\n            \"Only Distributor is allowed to call this\"\r\n            );\r\n        return MedicineDistributorToRtailer[msg.sender][index];\r\n     }\r\n\r\n     function getSubContractDistributorToRetailer(address _batchId) public view returns(address){\r\n         return MedicineDistributorToRtailerxContract[_batchId];\r\n     }\r\n\r\n    /***********************************************************Retailer Section***********************************************/\r\n\r\n     mapping(address=>address[]) MedicineBatchRetailer;\r\n\r\n     enum salestatus {\r\n        notfound,\r\n        atretailer,\r\n        sold,\r\n        expire,\r\n        damaged\r\n    }\r\n\r\n     mapping(address=>salestatus) sale;\r\n\r\n     event MedicineStatus(\r\n        address BatchID,\r\n        address indexed Retailer,\r\n        uint status\r\n    );\r\n\r\n    function medicineReceivedAtRetailer(address _batchId,address _distributorAddress) public{\r\n        require(roles(Admin(admin).getRole(msg.sender))==roles.retailer,\"Ony retailer can access this function\");\r\n        Distributor(_distributorAddress).receivePackageRetailer(_batchId, msg.sender);\r\n        MedicineBatchRetailer[msg.sender].push(_batchId);\r\n        sale[_batchId]=salestatus(1);\r\n    } \r\n\r\n    function updateSaleStatus(\r\n        address _batchId,\r\n        uint _status\r\n    ) public {\r\n        require(roles(Admin(admin).getRole(msg.sender))==roles.retailer,\"Ony retailer can update status!\");\r\n        require(sale[_batchId]==salestatus.atretailer,\"Medicine is not at retailer\");\r\n        sale[_batchId]=salestatus(_status);\r\n        emit MedicineStatus(_batchId, msg.sender, _status);\r\n    }\r\n\r\n    function salesInfo(address _batchId) public view returns(uint){\r\n        return uint(sale[_batchId]);\r\n    }\r\n\r\n    function getBatchesCountRetailer() public view returns(uint){\r\n        require(roles(Admin(admin).getRole(msg.sender))==roles.retailer,\"Ony retailer can call this function!\");\r\n        return MedicineBatchRetailer[msg.sender].length;\r\n    }\r\n\r\n    function getBatchedIdByIndexRetailer(uint index) public view returns(address){\r\n        require(roles(Admin(admin).getRole(msg.sender))==roles.retailer,\"Ony retailer can call this function!\");\r\n        return MedicineBatchRetailer[msg.sender][index];\r\n    }\r\n\r\n}\r\n\r\n\r\n\r\n\r\n",
  "sourcePath": "C:/Users/Asus/Desktop/blockchain-projects/med-chain/src/contracts/MedCycle.sol",
  "compiler": {
    "name": "solc",
    "version": "0.5.16+commit.9c3226ce.Emscripten.clang"
  },
  "schemaVersion": "3.2.3",
  "updatedAt": "2021-06-22T12:28:18.455Z",
  "networkType": "ethereum",
  "devdoc": {
    "methods": {}
  },
  "userdoc": {
    "methods": {}
  }
}