{
  "contractName": "Supplier",
  "abi": [
    {
      "inputs": [
        {
          "internalType": "address",
          "name": "_admin",
          "type": "address"
        }
      ],
      "payable": false,
      "stateMutability": "nonpayable",
      "type": "constructor"
    },
    {
      "anonymous": false,
      "inputs": [
        {
          "indexed": true,
          "internalType": "address",
          "name": "productId",
          "type": "address"
        },
        {
          "indexed": true,
          "internalType": "address",
          "name": "supplier",
          "type": "address"
        },
        {
          "indexed": false,
          "internalType": "address",
          "name": "shipper",
          "type": "address"
        },
        {
          "indexed": true,
          "internalType": "address",
          "name": "receiver",
          "type": "address"
        }
      ],
      "name": "RawSupplyInit",
      "type": "event"
    },
    {
      "constant": false,
      "inputs": [
        {
          "internalType": "string",
          "name": "_description",
          "type": "string"
        },
        {
          "internalType": "string",
          "name": "_ownerName",
          "type": "string"
        },
        {
          "internalType": "string",
          "name": "_location",
          "type": "string"
        },
        {
          "internalType": "uint256",
          "name": "_quantity",
          "type": "uint256"
        },
        {
          "internalType": "address",
          "name": "_shipper",
          "type": "address"
        },
        {
          "internalType": "address",
          "name": "_manufacturer",
          "type": "address"
        }
      ],
      "name": "createRawPackage",
      "outputs": [],
      "payable": false,
      "stateMutability": "nonpayable",
      "type": "function"
    },
    {
      "constant": true,
      "inputs": [
        {
          "internalType": "address",
          "name": "_supplier",
          "type": "address"
        }
      ],
      "name": "getPackageCountSupplier",
      "outputs": [
        {
          "internalType": "uint256",
          "name": "",
          "type": "uint256"
        }
      ],
      "payable": false,
      "stateMutability": "view",
      "type": "function"
    },
    {
      "constant": true,
      "inputs": [
        {
          "internalType": "uint256",
          "name": "index",
          "type": "uint256"
        },
        {
          "internalType": "address",
          "name": "_supplier",
          "type": "address"
        }
      ],
      "name": "getPackageIdByIndexSupplier",
      "outputs": [
        {
          "internalType": "address",
          "name": "",
          "type": "address"
        }
      ],
      "payable": false,
      "stateMutability": "view",
      "type": "function"
    }
  ],
  "bytecode": "0x608060405234801561001057600080fd5b50604051611cd8380380611cd88339818101604052602081101561003357600080fd5b8101908080519060200190929190505050806000806101000a81548173ffffffffffffffffffffffffffffffffffffffff021916908373ffffffffffffffffffffffffffffffffffffffff16021790555050611c44806100946000396000f3fe60806040523480156200001157600080fd5b5060043610620000465760003560e01c80639605a6c6146200004b57806396c69a4d14620000dc578063b32aedc01462000137575b600080fd5b6200009a600480360360408110156200006357600080fd5b8101908080359060200190929190803573ffffffffffffffffffffffffffffffffffffffff16906020019092919050505062000376565b604051808273ffffffffffffffffffffffffffffffffffffffff1673ffffffffffffffffffffffffffffffffffffffff16815260200191505060405180910390f35b6200012160048036036020811015620000f457600080fd5b81019080803573ffffffffffffffffffffffffffffffffffffffff16906020019092919050505062000550565b6040518082815260200191505060405180910390f35b62000374600480360360c08110156200014f57600080fd5b81019080803590602001906401000000008111156200016d57600080fd5b8201836020820111156200018057600080fd5b80359060200191846001830284011164010000000083111715620001a357600080fd5b91908080601f016020809104026020016040519081016040528093929190818152602001838380828437600081840152601f19601f820116905080830192505050505050509192919290803590602001906401000000008111156200020757600080fd5b8201836020820111156200021a57600080fd5b803590602001918460018302840111640100000000831117156200023d57600080fd5b91908080601f016020809104026020016040519081016040528093929190818152602001838380828437600081840152601f19601f82011690508083019250505050505050919291929080359060200190640100000000811115620002a157600080fd5b820183602082011115620002b457600080fd5b80359060200191846001830284011164010000000083111715620002d757600080fd5b91908080601f016020809104026020016040519081016040528093929190818152602001838380828437600081840152601f19601f82011690508083019250505050505050919291929080359060200190929190803573ffffffffffffffffffffffffffffffffffffffff169060200190929190803573ffffffffffffffffffffffffffffffffffffffff16906020019092919050505062000712565b005b6000600160068111156200038657fe5b6000809054906101000a900473ffffffffffffffffffffffffffffffffffffffff1673ffffffffffffffffffffffffffffffffffffffff166344276733846040518263ffffffff1660e01b8152600401808273ffffffffffffffffffffffffffffffffffffffff1673ffffffffffffffffffffffffffffffffffffffff16815260200191505060206040518083038186803b1580156200042557600080fd5b505afa1580156200043a573d6000803e3d6000fd5b505050506040513d60208110156200045157600080fd5b810190808051906020019092919050505060068111156200046e57fe5b60068111156200047a57fe5b14620004d2576040517f08c379a000000000000000000000000000000000000000000000000000000000815260040180806020018281038252602581526020018062001bc86025913960400191505060405180910390fd5b600160008373ffffffffffffffffffffffffffffffffffffffff1673ffffffffffffffffffffffffffffffffffffffff16815260200190815260200160002083815481106200051d57fe5b9060005260206000200160009054906101000a900473ffffffffffffffffffffffffffffffffffffffff16905092915050565b6000600160068111156200056057fe5b6000809054906101000a900473ffffffffffffffffffffffffffffffffffffffff1673ffffffffffffffffffffffffffffffffffffffff166344276733846040518263ffffffff1660e01b8152600401808273ffffffffffffffffffffffffffffffffffffffff1673ffffffffffffffffffffffffffffffffffffffff16815260200191505060206040518083038186803b158015620005ff57600080fd5b505afa15801562000614573d6000803e3d6000fd5b505050506040513d60208110156200062b57600080fd5b810190808051906020019092919050505060068111156200064857fe5b60068111156200065457fe5b14620006c8576040517f08c379a00000000000000000000000000000000000000000000000000000000081526004018080602001828103825260208152602001807f4f6e6c7920737570706c6965722063616e206765742061207061636b6167652181525060200191505060405180910390fd5b600160008373ffffffffffffffffffffffffffffffffffffffff1673ffffffffffffffffffffffffffffffffffffffff168152602001908152602001600020805490509050919050565b600160068111156200072057fe5b6000809054906101000a900473ffffffffffffffffffffffffffffffffffffffff1673ffffffffffffffffffffffffffffffffffffffff166344276733336040518263ffffffff1660e01b8152600401808273ffffffffffffffffffffffffffffffffffffffff1673ffffffffffffffffffffffffffffffffffffffff16815260200191505060206040518083038186803b158015620007bf57600080fd5b505afa158015620007d4573d6000803e3d6000fd5b505050506040513d6020811015620007eb57600080fd5b810190808051906020019092919050505060068111156200080857fe5b60068111156200081457fe5b146200086c576040517f08c379a000000000000000000000000000000000000000000000000000000000815260040180806020018281038252602381526020018062001bed6023913960400191505060405180910390fd5b600033878787878787604051620008839062000be7565b808873ffffffffffffffffffffffffffffffffffffffff1673ffffffffffffffffffffffffffffffffffffffff1681526020018060200180602001806020018781526020018673ffffffffffffffffffffffffffffffffffffffff1673ffffffffffffffffffffffffffffffffffffffff1681526020018573ffffffffffffffffffffffffffffffffffffffff1673ffffffffffffffffffffffffffffffffffffffff16815260200184810384528a818151815260200191508051906020019080838360005b838110156200096657808201518184015260208101905062000949565b50505050905090810190601f168015620009945780820380516001836020036101000a031916815260200191505b50848103835289818151815260200191508051906020019080838360005b83811015620009cf578082015181840152602081019050620009b2565b50505050905090810190601f168015620009fd5780820380516001836020036101000a031916815260200191505b50848103825288818151815260200191508051906020019080838360005b8381101562000a3857808201518184015260208101905062000a1b565b50505050905090810190601f16801562000a665780820380516001836020036101000a031916815260200191505b509a5050505050505050505050604051809103906000f08015801562000a90573d6000803e3d6000fd5b509050600160003373ffffffffffffffffffffffffffffffffffffffff1673ffffffffffffffffffffffffffffffffffffffff1681526020019081526020016000208190806001815401808255809150509060018203906000526020600020016000909192909190916101000a81548173ffffffffffffffffffffffffffffffffffffffff021916908373ffffffffffffffffffffffffffffffffffffffff160217905550508173ffffffffffffffffffffffffffffffffffffffff163373ffffffffffffffffffffffffffffffffffffffff168273ffffffffffffffffffffffffffffffffffffffff167f9dbe7d9fdd28b9b1c2ffe79a40f7beff124537ed0d7a47555d009e0271fc613386604051808273ffffffffffffffffffffffffffffffffffffffff1673ffffffffffffffffffffffffffffffffffffffff16815260200191505060405180910390a450505050505050565b610fd28062000bf68339019056fe60806040523480156200001157600080fd5b5060405162000fd238038062000fd2833981810160405260e08110156200003757600080fd5b8101908080519060200190929190805160405193929190846401000000008211156200006257600080fd5b838201915060208201858111156200007957600080fd5b82518660018202830111640100000000821117156200009757600080fd5b8083526020830192505050908051906020019080838360005b83811015620000cd578082015181840152602081019050620000b0565b50505050905090810190601f168015620000fb5780820380516001836020036101000a031916815260200191505b50604052602001805160405193929190846401000000008211156200011f57600080fd5b838201915060208201858111156200013657600080fd5b82518660018202830111640100000000821117156200015457600080fd5b8083526020830192505050908051906020019080838360005b838110156200018a5780820151818401526020810190506200016d565b50505050905090810190601f168015620001b85780820380516001836020036101000a031916815260200191505b5060405260200180516040519392919084640100000000821115620001dc57600080fd5b83820191506020820185811115620001f357600080fd5b82518660018202830111640100000000821117156200021157600080fd5b8083526020830192505050908051906020019080838360005b83811015620002475780820151818401526020810190506200022a565b50505050905090810190601f168015620002755780820380516001836020036101000a031916815260200191505b50604052602001805190602001909291908051906020019092919080519060200190929190505050866000806101000a81548173ffffffffffffffffffffffffffffffffffffffff021916908373ffffffffffffffffffffffffffffffffffffffff16021790555030600160006101000a81548173ffffffffffffffffffffffffffffffffffffffff021916908373ffffffffffffffffffffffffffffffffffffffff16021790555085600290805190602001906200033692919062000471565b5084600390805190602001906200034f92919062000471565b5083600490805190602001906200036892919062000471565b508260058190555081600660006101000a81548173ffffffffffffffffffffffffffffffffffffffff021916908373ffffffffffffffffffffffffffffffffffffffff16021790555080600760006101000a81548173ffffffffffffffffffffffffffffffffffffffff021916908373ffffffffffffffffffffffffffffffffffffffff16021790555086600860006101000a81548173ffffffffffffffffffffffffffffffffffffffff021916908373ffffffffffffffffffffffffffffffffffffffff160217905550600060028111156200044157fe5b600860146101000a81548160ff021916908360028111156200045f57fe5b02179055505050505050505062000520565b828054600181600116156101000203166002900490600052602060002090601f016020900481019282601f10620004b457805160ff1916838001178555620004e5565b82800160010185558215620004e5579182015b82811115620004e4578251825591602001919060010190620004c7565b5b509050620004f49190620004f8565b5090565b6200051d91905b8082111562000519576000816000905550600101620004ff565b5090565b90565b610aa280620005306000396000f3fe608060405234801561001057600080fd5b506004361061004c5760003560e01c80631f29567a146100515780633b205a7d14610095578063638e9a3d146100b3578063d02eee23146100f7575b600080fd5b6100936004803603602081101561006757600080fd5b81019080803573ffffffffffffffffffffffffffffffffffffffff1690602001909291905050506102f2565b005b61009d610539565b6040518082815260200191505060405180910390f35b6100f5600480360360208110156100c957600080fd5b81019080803573ffffffffffffffffffffffffffffffffffffffff16906020019092919050505061055b565b005b6100ff610785565b604051808060200180602001806020018881526020018773ffffffffffffffffffffffffffffffffffffffff1673ffffffffffffffffffffffffffffffffffffffff1681526020018673ffffffffffffffffffffffffffffffffffffffff1673ffffffffffffffffffffffffffffffffffffffff1681526020018573ffffffffffffffffffffffffffffffffffffffff1673ffffffffffffffffffffffffffffffffffffffff16815260200184810384528b818151815260200191508051906020019080838360005b838110156101e35780820151818401526020810190506101c8565b50505050905090810190601f1680156102105780820380516001836020036101000a031916815260200191505b5084810383528a818151815260200191508051906020019080838360005b8381101561024957808201518184015260208101905061022e565b50505050905090810190601f1680156102765780820380516001836020036101000a031916815260200191505b50848103825289818151815260200191508051906020019080838360005b838110156102af578082015181840152602081019050610294565b50505050905090810190601f1680156102dc5780820380516001836020036101000a031916815260200191505b509a505050505050505050505060405180910390f35b600760009054906101000a900473ffffffffffffffffffffffffffffffffffffffff1673ffffffffffffffffffffffffffffffffffffffff168173ffffffffffffffffffffffffffffffffffffffff1614610398576040517f08c379a0000000000000000000000000000000000000000000000000000000008152600401808060200182810382526027815260200180610a476027913960400191505060405180910390fd5b600160028111156103a557fe5b60028111156103b057fe5b600860149054906101000a900460ff1660028111156103cb57fe5b1461043e576040517f08c379a00000000000000000000000000000000000000000000000000000000081526004018080602001828103825260188152602001807f5061636b616765206e6f7420736869707065642079657421000000000000000081525060200191505060405180910390fd5b60028081111561044a57fe5b600860146101000a81548160ff0219169083600281111561046757fe5b0217905550600760009054906101000a900473ffffffffffffffffffffffffffffffffffffffff1673ffffffffffffffffffffffffffffffffffffffff16600660009054906101000a900473ffffffffffffffffffffffffffffffffffffffff1673ffffffffffffffffffffffffffffffffffffffff163073ffffffffffffffffffffffffffffffffffffffff167f7e89c4b1a4e2b51aae84eb1f90e8a34cb792ece5ac5cb63db4830c891220b28d60016002604051808381526020018281526020019250505060405180910390a450565b6000600860149054906101000a900460ff16600281111561055657fe5b905090565b600660009054906101000a900473ffffffffffffffffffffffffffffffffffffffff1673ffffffffffffffffffffffffffffffffffffffff168173ffffffffffffffffffffffffffffffffffffffff1614610601576040517f08c379a0000000000000000000000000000000000000000000000000000000008152600401808060200182810382526031815260200180610a166031913960400191505060405180910390fd5b6000600281111561060e57fe5b600281111561061957fe5b600860149054906101000a900460ff16600281111561063457fe5b1461068a576040517f08c379a00000000000000000000000000000000000000000000000000000000081526004018080602001828103825260288152602001806109ee6028913960400191505060405180910390fd5b6001600281111561069757fe5b600860146101000a81548160ff021916908360028111156106b457fe5b0217905550600760009054906101000a900473ffffffffffffffffffffffffffffffffffffffff1673ffffffffffffffffffffffffffffffffffffffff16600660009054906101000a900473ffffffffffffffffffffffffffffffffffffffff1673ffffffffffffffffffffffffffffffffffffffff163073ffffffffffffffffffffffffffffffffffffffff167f7e89c4b1a4e2b51aae84eb1f90e8a34cb792ece5ac5cb63db4830c891220b28d600180604051808381526020018281526020019250505060405180910390a450565b6060806060600080600080600260036004600554600660009054906101000a900473ffffffffffffffffffffffffffffffffffffffff16600760009054906101000a900473ffffffffffffffffffffffffffffffffffffffff16600860009054906101000a900473ffffffffffffffffffffffffffffffffffffffff16868054600181600116156101000203166002900480601f0160208091040260200160405190810160405280929190818152602001828054600181600116156101000203166002900480156108975780601f1061086c57610100808354040283529160200191610897565b820191906000526020600020905b81548152906001019060200180831161087a57829003601f168201915b50505050509650858054600181600116156101000203166002900480601f0160208091040260200160405190810160405280929190818152602001828054600181600116156101000203166002900480156109335780601f1061090857610100808354040283529160200191610933565b820191906000526020600020905b81548152906001019060200180831161091657829003601f168201915b50505050509550848054600181600116156101000203166002900480601f0160208091040260200160405190810160405280929190818152602001828054600181600116156101000203166002900480156109cf5780601f106109a4576101008083540402835291602001916109cf565b820191906000526020600020905b8154815290600101906020018083116109b257829003601f168201915b5050505050945096509650965096509650965096509091929394959656fe746865207061636b616765206973206e6f206c6f6e676572207769746820746865206f776e6572214f6e6c7920746865207368697070657220697320616c6c6f77656420746f20736869702074686973207061636b616765214f6e79206d616e7566616374757265722063616e2072656365697620746865207061636b616765a265627a7a72315820beb638ee4e41d1d9043a5c3377d5024cb20d06c03cb6e98a42be372916634a7764736f6c634300051000324f6e6c7920737570706c6965722063616e2063616c6c20746869732066756e6374696f6e214f6e6c7920737570706c6965722063616e206372656174652061207061636b61676521a265627a7a723158202f9d6fed0e7ce0da3ceea5683722f0e2810591c6c1783be7dc3c8208ded5932e64736f6c63430005100032",
  "source": "pragma solidity >=0.5.0 <0.8.6;\r\n\r\nimport \"./Admin.sol\";\r\nimport \"./RawMaterial.sol\";\r\n\r\ncontract Supplier{\r\n\r\n    address admin;\r\n\r\n    constructor(address _admin) public {\r\n        admin=_admin;\r\n    }\r\n      enum roles{\r\n        norole,\r\n        supplier,\r\n        transporter,\r\n        manufacturer,\r\n        distributor,\r\n        retailer,\r\n        revoke\r\n    }\r\n\r\n    mapping(address=>address[]) supplierRawProductInfo;\r\n\r\n    event RawSupplyInit(\r\n        address indexed productId,\r\n        address indexed supplier,\r\n        address shipper,\r\n        address indexed receiver\r\n    );\r\n\r\n    function createRawPackage(\r\n        string memory _description,\r\n        string memory _ownerName,\r\n        string memory _location,\r\n        uint256 _quantity,\r\n        address _shipper,\r\n        address _manufacturer\r\n    ) public {\r\n\r\n        require(roles(Admin(admin).getRole(msg.sender))==roles.supplier,\"Only supplier can create a package!\");\r\n\r\n        RawMaterial rawData=new RawMaterial(\r\n            msg.sender,\r\n         _description,\r\n         _ownerName,\r\n         _location,\r\n         _quantity,\r\n         _shipper,\r\n         _manufacturer\r\n        );\r\n\r\n        supplierRawProductInfo[msg.sender].push(address(rawData));\r\n        emit RawSupplyInit(address(rawData), msg.sender, _shipper, _manufacturer);\r\n    }\r\n\r\n    function getPackageCountSupplier(address _supplier) public view returns(uint){\r\n        require(roles(Admin(admin).getRole(_supplier))==roles.supplier,\"Only supplier can get a package!\");\r\n        return supplierRawProductInfo[_supplier].length;\r\n    }\r\n\r\n    function getPackageIdByIndexSupplier(uint index,address _supplier) public view returns(address){\r\n        require(roles(Admin(admin).getRole(_supplier))==roles.supplier,\"Only supplier can call this function!\");\r\n        return supplierRawProductInfo[_supplier][index];\r\n    }\r\n}",
  "sourcePath": "C:/Users/Asus/Desktop/blockchain-projects/med-chain/src/contracts/Supplier.sol",
  "compiler": {
    "name": "solc",
    "version": "0.5.16+commit.9c3226ce.Emscripten.clang"
  },
  "schemaVersion": "3.2.3",
  "updatedAt": "2021-06-26T09:17:30.007Z",
  "networkType": "ethereum",
  "devdoc": {
    "methods": {}
  },
  "userdoc": {
    "methods": {}
  }
}