{
  "contractName": "Transporter",
  "abi": [
    {
      "inputs": [
        {
          "internalType": "address",
          "name": "_admin",
          "type": "address"
        }
      ],
      "payable": false,
      "stateMutability": "nonpayable",
      "type": "constructor"
    },
    {
      "constant": false,
      "inputs": [
        {
          "internalType": "address",
          "name": "batchId",
          "type": "address"
        },
        {
          "internalType": "uint256",
          "name": "transporterType",
          "type": "uint256"
        },
        {
          "internalType": "address",
          "name": "distributorId",
          "type": "address"
        }
      ],
      "name": "loadConsignment",
      "outputs": [],
      "payable": false,
      "stateMutability": "nonpayable",
      "type": "function"
    }
  ],
  "bytecode": "0x608060405234801561001057600080fd5b5060405161057d38038061057d8339818101604052602081101561003357600080fd5b8101908080519060200190929190505050806000806101000a81548173ffffffffffffffffffffffffffffffffffffffff021916908373ffffffffffffffffffffffffffffffffffffffff160217905550506104e9806100946000396000f3fe608060405234801561001057600080fd5b506004361061002b5760003560e01c80634fa831de14610030575b600080fd5b61009c6004803603606081101561004657600080fd5b81019080803573ffffffffffffffffffffffffffffffffffffffff16906020019092919080359060200190929190803573ffffffffffffffffffffffffffffffffffffffff16906020019092919050505061009e565b005b600260068111156100ab57fe5b6000809054906101000a900473ffffffffffffffffffffffffffffffffffffffff1673ffffffffffffffffffffffffffffffffffffffff166344276733336040518263ffffffff1660e01b8152600401808273ffffffffffffffffffffffffffffffffffffffff1673ffffffffffffffffffffffffffffffffffffffff16815260200191505060206040518083038186803b15801561014957600080fd5b505afa15801561015d573d6000803e3d6000fd5b505050506040513d602081101561017357600080fd5b8101908080519060200190929190505050600681111561018f57fe5b600681111561019a57fe5b146101f0576040517f08c379a000000000000000000000000000000000000000000000000000000000815260040180806020018281038252602881526020018061048d6028913960400191505060405180910390fd5b60008211610266576040517f08c379a000000000000000000000000000000000000000000000000000000000815260040180806020018281038252601a8152602001807f5472616e73706f72746572207479706520756e646566696e656400000000000081525060200191505060405180910390fd5b600182141561030b578273ffffffffffffffffffffffffffffffffffffffff1663638e9a3d336040518263ffffffff1660e01b8152600401808273ffffffffffffffffffffffffffffffffffffffff1673ffffffffffffffffffffffffffffffffffffffff168152602001915050600060405180830381600087803b1580156102ee57600080fd5b505af1158015610302573d6000803e3d6000fd5b50505050610487565b60028214156103b0578273ffffffffffffffffffffffffffffffffffffffff1663f74fdde1336040518263ffffffff1660e01b8152600401808273ffffffffffffffffffffffffffffffffffffffff1673ffffffffffffffffffffffffffffffffffffffff168152602001915050600060405180830381600087803b15801561039357600080fd5b505af11580156103a7573d6000803e3d6000fd5b50505050610486565b6003821415610485578073ffffffffffffffffffffffffffffffffffffffff1663190d65de84336040518363ffffffff1660e01b8152600401808373ffffffffffffffffffffffffffffffffffffffff1673ffffffffffffffffffffffffffffffffffffffff1681526020018273ffffffffffffffffffffffffffffffffffffffff1673ffffffffffffffffffffffffffffffffffffffff16815260200192505050600060405180830381600087803b15801561046c57600080fd5b505af1158015610480573d6000803e3d6000fd5b505050505b5b5b50505056fe4f6e6c79207472616e73706f727465722063616e2063616c6c20746869732066756e6374696f6e2ea265627a7a723158200ed2f035e9e5de97dc6b681ec78b9fc51c90790e06494cf27afab90d767a2ffe64736f6c63430005100032",
  "source": "pragma solidity >=0.5.0 <0.8.6;\r\n\r\nimport \"./Admin.sol\";\r\nimport \"./RawMaterial.sol\";\r\nimport \"./Medicine.sol\";\r\nimport \"./Distributor.sol\";\r\n\r\ncontract Transporter{\r\n        enum roles{\r\n        norole,\r\n        supplier,\r\n        transporter,\r\n        manufacturer,\r\n        distributor,\r\n        retailer,\r\n        revoke\r\n    }\r\n\r\n    address admin;\r\n\r\n    constructor(address _admin) public {\r\n         admin=_admin;\r\n    }\r\n\r\n    function loadConsignment(\r\n        address batchId,\r\n        uint transporterType,\r\n        address distributorId\r\n    ) public {\r\n        require(roles(Admin(admin).getRole(msg.sender))==roles.transporter,\"Only transporter can call this function.\");\r\n        require(transporterType>0,\"Transporter type undefined\");\r\n        if(transporterType==1){\r\n            RawMaterial(batchId).pickPackage(msg.sender);\r\n        }\r\n        else if(transporterType==2){\r\n            Medicine(batchId).pickPackageDistributor(msg.sender);\r\n        }\r\n        else if(transporterType==3){\r\n            Distributor(distributorId).pickPackageForRetailer(batchId,msg.sender);\r\n        }\r\n    }\r\n}",
  "sourcePath": "C:/Users/Asus/Desktop/blockchain-projects/med-chain/src/contracts/Transporter.sol",
  "compiler": {
    "name": "solc",
    "version": "0.5.16+commit.9c3226ce.Emscripten.clang"
  },
  "schemaVersion": "3.2.3",
  "updatedAt": "2021-06-26T09:17:30.035Z",
  "networkType": "ethereum",
  "devdoc": {
    "methods": {}
  },
  "userdoc": {
    "methods": {}
  }
}